:10252D00202530326264202530326264202530321D
:10253D0062640020200032302562642530326264EE
:07254D002D2530326264000D
:1016D2004300D90102074100E4024100D201410066
:1016E200D701014B014100EC004100CE004100D87E
:1016F200FF4100D6014100E3004100D5011536004B
:1017020001000000000001010000000000020100D1
:08171200000000004100CC00C2
:1011370043BA801225541227B612280B12276212BF
:10114700280E438E4053890F758B40758DA2C28F31
:10115700D28ED2AB1212DC9000E4E024D9F582E4FF
:101167003400F583E0FF7E00122790E54B640160B1
:1011770005E54BB4022990009512049B000001F489
:10118700AF31AE30AD2FAC2E122163EF6014121EBB
:101197004A85163185153085142F85132E80031245
:1011A7000B8F9000ECE070030212369000CDE0B494
:1011B700021A9000E0E09000E9F09000E1E0900072
:1011C700EAF09000E2E09000EBF080209000DCE095
:1011D7009000E5F09000DDE09000E6F09000DEE0A2
:1011E7009000E7F09000DFE09000E8F09000E6E084
:1011F700FDA3E0FBA3E014900094F09000E9E090D9
:101207000095F09000EAE0900096F09000EBE090F7
:101217000097F09000E5E0FF121FFA7E007F077D40
:10122700007B017A0079E51204FCE49000ECF09071
:1012370000D2E0602DE54B64106027900095120402
:101247009B00000064AF2DAE2CAD2BAC2A1221639E
:10125700EF600F12143785162D85152C85142B85F5
:10126700132A9000D7E0602DE54B641060279000AB
:101277009512049B0001D4C0AF29AE28AD27AC2638
:10128700122163EF600F121A6585162985152885C7
:1012970014278513269000D6E0700302115B900097
:1012A7009512049B0000000AAF35AE34AD33AC3263
:1012B700122163EF700302115B9000D8E0FF9000EA
:1012C700E3E0FD121D3C85163585153485143385FD
:0512D700133202115B5F
:1021630090009112048FAF16AE15AD14AC1390000E
:1021730091E0F8A3E0F9A3E0FAA3E0FBD312038014
:10218300502B900091E0F8A3A3A3C3E5169BFFE5B2
:10219300159AFEE51499FDE51398FCA3E0F8A3E076
:1021A300F9A3E0FAA3E0FBD312038050037F0122DB
:0321B3007F002288
:1012DC00E53C6051E537704AE54B6410600FE54B17
:1012EC00B402047F0180027F028F4B80359000CFC7
:1012FC00E0FBA3E0FAA3E0F9120114600C14FF90D8
:10130C0000D3E0FEEFC39E50099000D4E012017CA4
:10131C0080109000CFE0FBA3E0FAA3E0F974FF1279
:10132C00015AE4F53CE54370030213BDE53E704DF4
:10133C00E54BB410339000CFE0FBA3E0FAA3E0F947
:10134C001201142401FFE433FE9000D4E0FDD3EF2E
:10135C009D7480F86E9840099000D3E012017C8057
:10136C004D740112015A80469000E4E02401FFE420
:10137C0033FE7C007D031201C2EDF08031E53E644A
:10138C0002702B9000D6E070047F0180027F0090E9
:10139C0000D6EFF0FB9000E3E02401FFE433FE7C89
:1013AC00007D031201C2EDF0EB70031222A3E4F5F1
:1013BC0043E54A6075E5457029E54BB41011900082
:1013CC00D5E004F0E0D39403405D7401F0805890B4
:1013DC0000D2E070047F0180027F009000D2EFF019
:1013EC008045E5456402703FE54BB4101A754B011E
:1013FC009000EC7401F07E007F0A7D007B007A0087
:10140C00794C1204FC80209000CDE54BF0754B100C
:10141C009000D57401F078E57C00FDFB7A0079DC56
:0B142C007E007F071200EEE4F54A226C
:100B8F0090009512049B0000012CAF25AE24AD23DD
:0B0B9F00AC22122163EF7003020D8BEB
:100BAA009000CCE070047F0180027F009000CCEFBF
:100BBA00F07E007F0A7D007B007A00794C1204FCEB
:100BCA009000CDE064016003020C979000A374FFCB
:100BDA00F0A37425F0A3742DF09000E9E09000A62C
:100BEA00F09000EAE09000A7F09000EBE09000A8F7
:100BFA00F07B007A00794C1206399000D5E0640146
:100C0A0070289000CF04F0A37400F0A374E9F09068
:100C1A0000D47417F0E49000D3F09000CCE0700395
:100C2A00020D65784D7C00020D569000D5E06402F5
:100C3A0070289000CF04F0A37400F0A374EAF09037
:100C4A0000D4743BF0E49000D3F09000CCE0700341
:100C5A00020D6578507C00020D569000D5E06403C1
:100C6A006003020D659000CF04F0A37400F0A37432
:100C7A00EBF09000D4743BF0E49000D3F09000CCF9
:100C8A00E07003020D6578537C00020D569000CD8A
:100C9A00E064026003020D659000A374FFF0A37480
:100CAA0025F0A37443F09000E5E09000A6F09000D0
:100CBA00E6E09000A7F09000E7E09000A8F07B0043
:100CCA007A00794C1206399000D5E06401702590BB
:100CDA0000CF04F0A37400F0A374E5F09000D4747C
:100CEA0063F09000D37417F09000CCE0606D784EFA
:100CFA007C0080589000D5E0640270259000CF04F3
:100D0A00F0A37400F0A374E6F09000D4740CF09091
:100D1A0000D37401F09000CCE0604078507C0080F1
:100D2A002B9000D5E0B403339000CF7401F0A37484
:100D3A0000F0A374E7F09000D4741FF09000D3740D
:100D4A0001F09000CCE0601378537C007D007BFFBB
:100D5A007A2579407E007F021200EEE49000D2F0FC
:100D6A00FB7A00794C9000CDE0B402047D00800249
:100D7A007D011209398516258515248514238513C5
:010D8A002246
:010D8B002245
:101E4A007B017A0079DC120F857E007F0A7D007B98
:101E5A00007A00794C1204FCE54BB401299000CEBB
:101E6A00E070047F0180027F009000CEEFF09000C6
:101E7A0094E4F0A37400F0A3744CF07B017A007927
:101E8A00DC122206801FE54BB4021AE49000CEF061
:101E9A00900094F0A37400F0A3744CF07B017A00D4
:101EAA0079DC1222567B007A00794C9000CEE0FD54
:031EBA00020939E1
:10158A0090008EEBF0A3EAF0A3E9F090008EE0FB66
:10159A00A3E0FAA3E0F99000021203EBE47BE87AF5
:1015AA0003F9F8D3120380502D90008EE0FBA3E0DC
:1015BA00FAA3E0F990000112012D701AE92402F948
:1015CA00E43AFA1203CBEF2401FFE43EFEE43DFDC8
:1015DA00E43CFC02041B90008EE0FBA3E0FAA3E0CB
:1015EA00F9120114FF1226F4EF60030216B49000F8
:1015FA008EE0FBA3E0FAA3E0F990000112012D703E
:10160A001CE92402F9E43AFA1203CBEF2401FFE4BD
:10161A003EFEE43DFDE43CFC12041B802790008E54
:10162A00E0FBA3E0FAA3E0F990000112012DB40156
:10163A00139000021204CC00000000900001E41292
:10164A00018E805E90008EE0FBA3E0FAA3E0F990A1
:10165A00000112012D70709000021203EBE47BE886
:10166A007A03F9F8D3120380505D90008EE0FBA351
:10167A00E0FAA3E0F9900001740212018EE9240253
:10168A00F9E43AFA1203CBEF2401FFE43EFEE43D0B
:10169A00FDE43CFC12041B90008EE0FBA3E0FAA3DD
:1016AA00E0F9900006740102018E90008EE0FBA31F
:1016BA00E0FAA3E0F9900001740112018E90000291
:0816CA001204CC000000002214
:03001B0002210EB1
:10210E00C0E0C0F0C083C082C0D075D000C000C097
:10211E0001C002C003C004C005C006C0077B007A20
:10212E0000793612158A7B007A00793D12158A7B6A
:10213E00007A00794412158AC28FD007D006D005D6
:10214E00D004D003D002D001D000D0D0D082D08322
:05215E00D0F0D0E032DA
:0727F30025626400000000F4
:10171A0041003101125600000000000000000000E4
:10172A000000000000000000146800000000000033
:10173A00000000000000000000000000000060300F
:10174A0000320077000000240000006B0000006DEA
:10175A000000003C0000005D0000005F0000006423
:10176A000000007F0000007D00000000010000086A
:10177A000000602C00620000EE000000480000003B
:10178A00D6000000DA00000078000000BA0000006D
:10179A00BE000000C8000000FE000000FA000000C1
:1017AA00100041000000603000010000000000004D
:1017BA00000000000000000000000000000000001F
:1017CA00000000000000000000000000000000000F
:0A17DA000000000000000000000005
:10245C0090FECCE4F090FEC97468F090FECC741041
:10246C00F090FED7E4F0A37496F090FED27403F0D3
:10247C00A374E8F090FEB17404F090FEDD7480F06B
:08248C0090FEC0E04481F02243
:0D000E0090FEC0E054FEF090FEB1E4F02240
:10276200D29312245C7F021224CBE4FF1223AA7FAD
:09277200077E001227900225ECFD
:08000300C29312000E0225EC6D
:1025EC007E007F127D007B007A0079561204FC7B02
:1025FC00007A0079569000B0E4F0A37412F0E4FF76
:03260C00021C208D
:051B8F00900098EFF04A
:101B9400789D7C007D017BFF7A2779F77E007F03A7
:101BA4001200EE7E007F037D007B017A00799D1296
:101BB40004FC900099E0FCA3E0FDA3E0FEA3E0FF99
:101BC400EC4D4E4F603B900099A3A3A3E078101214
:101BD4000391A3EFF0900099E0FCA3E0FDA3E0FEE5
:101BE400A3E0FF780812039190009EEFF090009913
:101BF400E0FCA3E0FDA3E0FEA3E0FFE490009FEF80
:101C0400F0900098E075F003A4FF7B017A00799DC1
:0C1C14009000B0E4F0A37403F0021C2068
:100939009000A3EDF09000A0EBF0A3EAF0A3E9F09A
:1009490012277BE49000A4F0A3F0A3F0A3F0A3F096
:10095900A3F0D3EF9409EE940040067E007F09804E
:10096900009000AAEEF0A3EFF07E007F127D007BDD
:10097900007A0079561204FC7E007F147D007B000A
:100989007A0079681204FC9000AAE07002A3E07072
:1009990003020AB4E49000A6F0A3F09000A0E0FBE3
:1009A900A3E0FAA3E0F99000A8E0FCA3E0FDF5823A
:1009B9008C8312012DFF602EED64084C60169000A7
:1009C900A9E02401FD9000A8E03400ED30E0051213
:1009D9001DC480031219C59000A6A3E025E025E0F7
:1009E9002468F81204839000A9E004F070069000CE
:1009F900A8E004F09000AAE0FEA3E0FF9000A8E0C0
:100A0900FCA3E0FDC39FEC9E4003020AB49000A042
:100A1900E0FBA3E0FAA3E0F98D828C8312012DFF9C
:100A290060469000A8A3E064084C600FED2401FD26
:100A3900E43CED30E005121DC480031219C5900095
:100A4900A6A3E025E025E02468F8120441EF4BFF56
:100A5900EE4AFEED49FDEC48FC9000A6A3E025E036
:100A690025E02468F81204839000A9E004F07006D8
:100A79009000A8E004F09000AAE0FEA3E0FFC39074
:100A890000A9E09F9000A8E09E50209000A7E004F4
:100A9900F070069000A6E004F0C39000A7E094056A
:100AA9009000A6E0940050030209A49000A3E0601E
:100AB90024E577F577E576F576E5754408F575E586
:100AC90074F574E56FF56FE56E4410F56EE56DF537
:100AD9006DE56CF56CE57BF57BE57AF57AE57944AE
:100AE90002F579E578F578E49000A6F0A3F0900096
:100AF900A6A3E0FB25E025E02468F8120435781068
:100B0900120391E49000A475F00112024D74562568
:100B1900F0F8A607EB25E025E02468F812043578FB
:100B290008120391E49000A475F00112024D745665
:100B390025F0F8A6079000A6A3E025E025E02468A3
:100B4900F8120435E49000A475F00112024D7456B0
:100B590025F0F8A6079000A7E004F070069000A61B
:100B6900E004F09000A6E07004A3E06405600302CD
:100B79000AF77B007A0079569000B0E4F0A374126A
:060B8900F0E4FF021C2055
:10279000900031E06F7001EE6008EFF0FD7F0112F4
:0327A000232E22C3
:0617F1009000AC12048F11
:1017F7009000B8E0F8A3E0F9A3E0FAA3E0FBA3E0C8
:10180700FCA3E0FDA3E0FEA3E0C39BFFEE9AFEED81
:1018170099FDEC98FCA312048F9000B0E0F8A3E0C8
:10182700F9A3E0FAA3E0FBA3E0FCA3E0FDA3E0FE3D
:10183700A3E0C39BFFEE9AFEED99FDEC98FC9000A8
:10184700C412048F9000B0E0F8A3E0F9A3E0FAA374
:10185700E0FB9000ACE0FCA3E0FDA3E0FEA3E0C347
:101867009BFFEE9AFEED99FDEC98FC9000C81204E0
:101877008FE47B02FAF9F89000C4E0FCA3E0FDA333
:10188700E0FEA3E0FF1222EAC004C005C006C007BD
:101897009000C0E0FCA3E0FDA3E0FEA3E0FF900002
:1018A700C8E0F8A3E0F9A3E0FAA3E0FB120263D0D3
:1018B70003D002D001D000EF2BFFEE3AFEED39FD49
:1018C700EC38FC9000C4E0F8A3E0F9A3E0FAA3E049
:1018D700FB1222EA9000B8E0F8A3E0F9A3E0FAA32C
:0C18E700E02FFFEA3EFEE93DFDE83CFC7E
:0118F30022D2
:101DC400EFB42002807AEFB42D0590005E8065C3E5
:101DD400EF648094B04069D3EF648094BA5061EFAB
:101DE4003395E0FEFDFCC004C005C006C0079000AA
:101DF400B012049B000000309000B412049B000059
:101E0400003A9000B812049B000000009000BC123D
:101E1400049B0000000AD007D006D005D004121796
:101E2400F190003275F004EF1204F0EE25E025E0A5
:101E34002583F583E0FCA3E0FDA3E0FEA3E0FF22FD
:061E4400E4FFFEFDFC229C
:1019C5009000A0E0FBA3E0FAA3E0F99000A8E0FEF8
:0A19D500A3E0F5828E8312012DFFBE
:1019DF00EFB42002807AEFB42D0590008A8065C3A2
:1019EF00EF648094B04069D3EF648094BA5061EF94
:1019FF003395E0FEFDFCC004C005C006C007900093
:101A0F00B012049B000000309000B412049B000041
:101A1F0000399000B812049B000000009000BC1227
:101A2F00049B00000009D007D006D005D004121780
:101A3F00F190006275F004EF1204F0EE25E025E05E
:101A4F002583F583E0FCA3E0FDA3E0FEA3E0FF22E6
:061A5F00E4FFFEFDFC2285
:10242300900091E0FCA3E0FDA3E0FEA3E0FF120314
:012433009117
:10243400E4FEFDA805EF088002C313D8FC5401FC98
:10244400C374079DFBF8EC088002C333D8FC4EFE2E
:072454000DEDB408DEAF0638
:01245B00225E
:10143700900000E0C3940C4002E4F090002DE0FC23
:10144700A3E0FDA3E0FEA3E0FFEC4D4E4F600302D7
:02145700155C22
:10145900900000E0C3940C4002E4F0E4FFFE7D80BC
:10146900FC900000E0F9F81203A490009112048F97
:101479007810122423A3EFF0780812242390009601
:10148900EFF0900091E0FCA3E0FDA3E0FEA3E0FFF4
:10149900122434900097EFF0900095E0FFE4FCFDF2
:1014A900FE78101203B8A804A905AA06AB07A3E0A1
:1014B900FE3395E0FDFCEA4EFAE94DF9E84CF8A354
:1014C900E0FFEB4FFFEAFEE9FDE8FC900091120412
:1014D9008F900000E0FBC394045013900091E0FC4E
:1014E900A3E0FDA3E0FEA3E0FFEE4440803BEBC395
:1014F9009404401B900000E094085013900091E080
:10150900FCA3E0FDA3E0FEA3E0FFEE4420801A90D7
:101519000000E0C394084019900091E0FCA3E0FDAD
:10152900A3E0FEA3E0FFEE4410FEEC90009112044C
:101539008F900091E0FCA3E0FDA3E0FEA3E0FF9003
:101549000000E025E025E02401F582E43400F5837C
:0315590012048FEA
:10155C00900000E025E025E02401F582E43400F55C
:10156C0083E0FCA3E0FDA3E0FEA3E0FF9000991252
:0D157C00048F7F05121B8F900000E004F02B
:01158900223F
:101A65009000917401F07E007F0C7D007B017A006F
:0A1A750079931204FCE4900092F053
:101A7F001227EA900091E0F9F81203B8E47B0AFA12
:101A8F00F9F81202EEAF0390009FEFF0900092E092
:101A9F007C007B012493F9EC3400FA9000A374FFCF
:101AAF00F0A37427F0A374F3F0A3EFF01206397FBD
:0A1ABF00017E007D007C00122696D7
:101AC900900092E004F0E0C3940A40AA7B017A00F6
:101AD9007993E4FD1209397F0A7E007D007C0012AA
:101AE9002696900091E004F0E0D3940A5003021A7C
:041AF9006B0225EC6B
:051F2A009000B4EFF08F
:101F2F00E4A3F0A3F0C2979000B5F0A3F07F0A7E70
:101F3F00007D007C001226D79000B4E030E004D280
:101F4F00968002C2967F0A7E007D007C001226D703
:101F5F00D2977F0A7E007D007C001226D7C2979011
:101F6F0000B4E0C313F09000B6E004F070069000E8
:101F7F00B5E004F0C39000B6E094089000B5E0948B
:031F8F000040AA65
:011F9200222C
:1023AA009000917440F0EF6004E04404F0D2CC7FD6
:1023BA000A7E007D007C001226D7C2CC7F0A7E00EE
:1023CA007D007C001226D7900091E0FF121F2A7F21
:0C23DA000A7E007D007C001226D7D2CCC9
:0123E60022D4
:1024CB00900091EFF0D2CC7F0A7E007D007C001251
:1024DB0026D7C2CC7F0A7E007D007C001226D790C7
:1024EB000091E0FF121F2A7F0A7E007D007C001204
:0524FB0026D7D2CC221F
:10232E00ED4480900091F0EF6004E04408F0D2CCD0
:10233E007F0A7E007D007C001226D7C2CC7F0A7EEB
:10234E00007D007C001226D7900091E0FF121F2A1C
:0D235E007F0A7E007D007C001226D7D2CCC5
:01236B00224F
:0E1C20009000ACEFF0A3EBF0A3EAF0A3E9F024
:101C2E00E49000B2F0A3F0D2CC7F0AFEFDFC1226A7
:101C3E00D7C2CC7F0A7E007D007C001226D7900092
:101C4E00ACE044C0FF121F2A7F0A7E007D007C009C
:101C5E001226D7E49000B2F0A3F09000B0E0FEA3FD
:101C6E00E0FFA3E0FCA3E0FDC39FEC9E5026900096
:101C7E00ADE0FBA3E0FAA3E0F98D828C8312012D77
:101C8E00FF121F2A9000B3E004F070CE9000B2E075
:101C9E0004F080C67F0A7E007D007C001226D7D21B
:011CAE00CC69
:011CAF002212
:1025C8002025303262642025303262642025303282
:1025D800626400323025626425303262642D253011
:0425E80032626400F7
:0727FA0043921043911022ED
:072801005392EF43911022F6
:032808000227FAAA
:0B250000EFF0A3EBF0A3EAF0A3E9F07A
:10250B001227FAD294D2957F047E007D007C0012B4
:10251B0026D7C2947F047E007D007C001226D7C292
:02252B009522F7
:102675001227FAC295C294D2957F047E007D007C14
:10268500001226D7D2947F047E007D007C000226AE
:01269500D76D
:10260F001227FAD294C2957F047E007D007C0012BF
:10261F0026D7D2957F047E007D007C001226D7C27C
:02262F009522F2
:102631001227FAC294C2957F047E007D007C0012AD
:1026410026D7D2957F047E007D007C001226D7C25A
:022651009522D0
:101EBD00E49000A7F0A37403F0D2947F017E007D1F
:101ECD00007C001226D71228017F017E007D007C48
:101EDD00001226D7D2957F017E007D007C00122650
:101EED00D730941C9000A8E0D3940040137F017E5E
:101EFD00007D007C001226D79000A8E014F080E150
:101F0D009000A8E060069000A77401F09000A7E093
:0C1F1D007003122675C2959000A7E0FF2B
:011F29002295
:0520B8009000A5EFF00F
:1020BD001227FAC2957F047E007D007C001226D780
:1020CD00E49000A6F09000A5E030E704D2948002E1
:1020DD00C2947F047E007D007C001226D7D2957FAE
:1020ED00047E007D007C001226D7C2959000A5E0ED
:1020FD00FF25E0F0A3E004F0E0C3940840C7021E02
:01210D00BD14
:052061009000A1EFF06A
:10206600E4A3F0122801A3F0C2957F047E007D0050
:102076007C001226D7D2959000A2E025E0F030949D
:1020860004E04401F07F017E007D007C001226D72B
:102096009000A3E004F0E0C3940840CCC295900001
:1020A600A1E06005122631800312260F9000A2E0FF
:0120B600FF2A
:0120B7002206
:031F930090009B20
:101F96001225007F641220B8EF605890009BE0FF86
:101FA6001220B8EF604D12250B7F651220B8EF6046
:101FB60042E49000A0F090009FE0FFA3E0FEC39FE4
:101FC600502EEF14B506047F0080027F01122061B7
:101FD60090009CE0FBA3E0FAA3E0F99000A0E0F5F6
:101FE60082758300EF12018E9000A0E004F080C697
:031FF6001226753B
:011FF90022C5
:0321B60090009FF7
:1021B9001225007F641220B8EF604190009FE0FF74
:1021C9001220B8EF6036E49000A4F09000A3E0FF7D
:1021D900A3E0FEC39F50229000A0E0FBA3E0FAA376
:1021E900E0F98E8275830012012DFF1220B8EF608D
:0C21F9000B9000A4E004F080D2122675C8
:0122050022B6
:03280B0002280898
:1027A300EF75F00A84C454F0FEEF75F00A84E5F087
:0327B3004EFF22B4
:0F27DB00EFC4540F75F00AA4FEEF540F2EFF2227
:021FFA00AC0732
:101FFC00122808900097E0FF1227A3A3EFF090009F
:10200C0096E0FF1227A3900099EFF0900095E0FF67
:10201C001227A390009AEFF0900094E0FFF8E408E8
:10202C008002C313D8FC440190009BF0AF0312272D
:10203C00A3A3EFF0AF051227A3A3EFF0AF04122771
:10204C00A3A3EFF07B017A0079989000A37407F0BA
:05205C00E4FF0221B6C3
:0B0F8500900091EBF0A3EAF0A3E9F06C
:100F90001228087B017A00799490009F7407F0E48E
:100FA000FF121F93900094E0FF1227DB900091E066
:100FB000FBA3E0FAA3E0F9900006EF12018E900087
:100FC00095E0FF1227DB900091E0FBA3E0FAA3E09D
:100FD000F9900005EF12018E900096E0FF1227DBDA
:100FE000900091E0FBA3E0FAA3E0F9900004EF1277
:100FF000018E900098E0FF1227DB900091E0FBA3A8
:10100000E0FAA3E0F9900002EF12018E900099E05F
:10101000FF1227DB900091E0FBA3E0FAA3E0F99038
:101020000001EF12018E90009AE0FF1227DB900082
:1010300091E0FBA3E0FAA3E0F9EF12017C900091AC
:10104000E0FBA3E0FAA3E0F9120114D39463400596
:10105000741712017C900091E0FBA3E0FAA3E0F981
:1010600090000112012DD3940C4008900001740CE3
:1010700012018E900091E0FBA3E0FAA3E0F990004A
:101080000112012D2401FFE433FE7C007D0D1201CD
:10109000B07D05120217120114FD1313543F2DFDEC
:1010A000E433CD2FFFED3EFE90000212012D7C00B7
:1010B0002FFFEC3ECF24DCCF34FFFE7D071202175A
:1010C000900003ED12018E90000312012DD39407BE
:1010D0004013900091E0FBA3E0FAA3E0F990000335
:1010E000740712018E900091E0FBA3E0FAA3E0F9EF
:1010F00090000312012D7008900003740712018EF6
:1011000090000412012DC394184007900004E412CB
:10111000018E90000512012DC3943C4007900005FC
:10112000E412018E90000612012DC3943C400790FA
:061130000006E412018E2E
:011136002296
:10220600900091EBF0A3EAF0A3E9F09000A374FF2D
:10221600F0A37425F0A374C8F0900091E0FBA3E04E
:10222600FAA3E0F990000412012D9000A6F09000A8
:102236000512012D9000A7F090000612012D9000C6
:10224600A8F0900094E0FBA3E0FAA3E0F9020639B7
:10225600900091EBF0A3EAF0A3E9F09000A374FFDD
:10226600F0A37425F0A374DBF0900091E0FBA3E0EB
:10227600FAA3E0F91201149000A6F09000011201F1
:102286002D9000A7F090000212012D9000A8F0906A
:0D2296000094E0FBA3E0FAA3E0F902063992
:0617E400041300000000E8
:1027B600438E807589F3758A40758CA2C28DD28C42
:0327C600D2A92273
:0927EA00AF16AE15AD14AC1322BC
:03000B000226B713
:1026B700C0E0C0D0E5162401F516E43515F515E49C
:1026C7003514F514E43513F513C28DD0D0D0E032AC
:102554007592F875913390FE117433F0E4F5B27509
:10256400B18090FE137480F090FE2374EFF075CA6E
:0725740010E4F5C9D2AF220B
:062696009000A012048F69
:10269C00750E18750F55D50FFDD50EFA9000A07458
:0A26AC00FF120450EC4D4E4F70E693
:0126B6002201
:0626D7009000B712048F11
:1026DD000000750E03D50EFD9000B774FF12045067
:0626ED00EC4D4E4F70EAB7
:0126F30022C4
:1026F400EF7005A2B733FF22EFB40104A290800665
:0D270400EFB40206A291E433FF227F002211
:0617EA004300F00064FF63
:03280E00C2B4222F
:10272E00D2B4000000000000C2B40000000000009F
:0A273E00000000000000000000226F
:1025A200D2B40000000000000000000000000000A3
:1025B20000000000C2B400000000000000000000A3
:0625C200000000000022F1
:0D2494007F067E00E4FDEDC39FE49E50290D
:1024A10074082DF8E690009BF0E4FC90009BE0306E
:1024B100E7051225A2800312272E90009BE025E05C
:0624C100F00CECB408E58C
:0324C7000D80D0B5
:0124CA0022EF
:1023E700EFC394025035EF75F003A424F3F582E4AC
:1023F7003400F583EDF0EF75F003A424F4F582E4DF
:102407003400F583EBF0900096E0FEEF75F003A43F
:0C24170024F5F582E43400F583EEF02299
:0518F400900095EFF0EB
:1018F900E4A3F0A3F0FE7F06FDFB7A007908120449
:10190900FCE4900097F0900097E0FFC39402400335
:031919000219B7F9
:10191C00EF75F003A424F3F9740035F0FA7B01A3FE
:10192C00EBF0A3EAF0A3E9F090000112012DFF7E89
:10193C0000900095E0FD7C001201B07DFF1201C209
:10194C00A3E0FE04F074082EF8A607900098E0FBC4
:10195C00A3E0FAA3E0F9120114FF7E00900095E0D9
:10196C00FD7C001201B07DFF1201C2A3E0FE04F069
:10197C0074082EF8A607900098E0FBA3E0FAA3E009
:10198C00F990000212012DFF7E00900095E0FD7C85
:10199C00001201B07DFF1201C2A3E0FE04F0740836
:0419AC002EF8A60764
:1019B000A3E004F002190F1224947F647E007D00DE
:0519C0007C000226D7A7
:1022A300E4900091F0F0900091E0FFC3940250326B
:1022B300EF75F003A424F3F9740035F0FA7B01A35E
:1022C300EBF0A3EAF0A3E9F0900002E412018E9090
:0A22D3000001E412018EE412017C08
:0D22DD00900091E004F080C4E4FF0218F4CA
:081D3C00900091EFF0A3EDF01F
:101D4400701778937C007D017B017A0079F0FE7F27
:101D5400031200EE120D8C8027900092E0B401185B
:101D640078937C007D017B017A0079F07E007F030B
:101D74001200EE12265380089000F0E0FF12236C4C
:101D840078ED7C007D017E007F031200EE9000ED73
:101D9400E0FDA3E0FBA3E0900096F0E4FF1223E74C
:101DA4009000EDE0FDA3E0FBA3E0900096F00F129D
:101DB40023E79000F0E004F0900091E0FF0218F4B3
:0727480090009BE0FF7DAA59
:10274F00AC07ED2401FFE433FEAD047C001201B0B1
:03275F00EEFF2268
:10271100AB05AA077C007E001201B0EEFFEA60075C
:0D272100EB60047E0180027E00EE2FFF229F
:1027C9009000A2EFF0A3EDF0A3EBF07B017A007982
:0127D900A25D
:0127DA0022DC
:100D8C009000967401F0E4A3F0A3F0A3F09000930C
:100D9C00E0FBA3E090009AF0900095E0F9EB541F73
:100DAC0033333354F8FF90009BF07D5512274FAA34
:100DBC0007EB30E703020E5320E64020E50AC3742C
:100DCC00FF9AA3F0A3EA8069900096E0600E900071
:100DDC009C74ABF0EA2455A3F0E4A3F0900097E0E8
:050DEC007003020EABD4
:100DF10012274890009FEFF0FEEA24AA90009CF091
:040E0100EE2455A3E3
:0C0E05008036EB20E538900096E0601885
:100E110012274890009FEFF0C374AB9F90009CF0A5
:080E2100EA24AAA3F0E4A3F007
:100E2900900097E0607C90009BE0FFC374FF9FA354
:100E3900F0A374FFF0E4A3F08068E490009CF0C391
:100E490074FF9AA3F0A3EAF08058EB20E63120E57D
:010E59002177
:100E5A0012274890009FEFF0E490009CF090009FCA
:0F0E6A00E0FFC374AB9F90009DF0EF2455A3F001
:100E7900803090009CEAF0E4A3F0C374FF8020EB7B
:100E890020E50FEA245590009CF0E4A3F0C374AB6D
:100E9900800DEA24AA90009CF0E4A3F0C374559A4B
:100EA900A3F0900098E0600790009DE0C313F090D4
:100EB9000099E0FD600A90009DE0FF122711EFF014
:100EC90090009AE0FFF4606DEF701090009C74FF41
:0B0ED900F090009EF090009DF0805A09
:100EE40090009AE0FFC374FF9FFF90009FF0FD12F3
:100EF4002711EFF0C374FF9FA3F0FD90009CE0FF67
:100F040012274FEFF0A3E0FF9000A0E0FD12274F5F
:100F140090009DEFF0A3E0FF9000A0E0FD12274FAA
:100F240090009EEFF0A3E0FF9000A1F090009CE001
:0A0F34002FF0A3E02FF0A3E02FF050
:100F3E00E9F46035AF01AD01122711A907E9900060
:100F4E009C7007F0A3F0A3F0801FE0FFAD01122705
:100F5E004FEFF0A3E0FFAD0112274FEFF0A3E0FF3C
:100F6E00AE01AD0612274FEFF090009CE0FFA3E01C
:070F7E00FDA3E0FB0227C9FF
:101AFD00900098E0FD900097E0FFC374FF9FFFED0D
:101B0D008FF0A4E5F0FCC3ED9CF9900096E0FFC4C6
:101B1D0013135403FDEF543FFFC3743F9F9000997F
:101B2D00F0EF89F0A4AEF07806CEC313CE13D8F93A
:101B3D0090009AF0AF01900099E08FF0A4AEF0788C
:101B4D0006CEC313CE13D8F9FF90009AE02CFEEF0A
:101B5D002CFFED601BB4010BA3ECF0A3EFF0A3EE93
:101B6D00F0801890009BEEF0A3ECF0A3EFF0800B4B
:101B7D0090009BEFF0A3EEF0A3ECF07B017A0079DF
:011B8D009BBC
:011B8E002234
:10265300900093E0FF7DBF12274FEFF078967C0048
:102663007D017B017A0079937E007F031200EE02E5
:022673001AFD4E
:10236C007DBF122711EF543F25E025E0FEEF30E74B
:10237C000D90009374FFF0A3F0A3EEF08019EF9092
:10238C00009330E60B74FFF0A3EEF0E4A3F08007AB
:0D239C00EEF0E4A3F0A3F07B017A0079934A
:0123A9002211
:03000000021CB02F
:0C1CB000787FE4F6D8FD75817B021CF7FC
:10001E00E709F608DFFA8046E709F208DFFA803EC4
:10002E0088828C83E709F0A3DFFA8032E309F608B1
:10003E00DFFA8078E309F208DFFA807088828C8319
:10004E00E309F0A3DFFA806489828A83E0A3F608CD
:10005E00DFFA805889828A83E0A3F208DFFA804CA7
:10006E0080D280FA80C680D4806980F2803380107E
:10007E0080A680EA809A80A880DA80E280CA8033E7
:10008E0089828A83ECFAE493A3C8C582C8CCC5835F
:10009E00CCF0A3C8C582C8CCC583CCDFE9DEE7802F
:1000AE000D89828A83E493A3F608DFF9ECFAA9F0AE
:1000BE00EDFB2289828A83ECFAE0A3C8C582C8CC04
:1000CE00C583CCF0A3C8C582C8CCC583CCDFEADE1D
:1000DE00E880DB89828A83E493A3F208DFF980CC7F
:1000EE0088F0EF60010E4E60C388F0ED2402B40478
:1000FE000050B9F582EB2402B4040050AF2323451F
:06010E00822390006E73D5
:10011400BB010689828A83E0225002E722BBFE02E9
:09012400E32289828A83E493221C
:10012D00BB010CE58229F582E5833AF583E0225087
:10013D0006E92582F8E622BBFE06E92582F8E222D1
:0D014D00E58229F582E5833AF583E49322EB
:10015A00BB010989828A83F8E028F022500327F735
:10016A0022BBFE05F8E328F3228A838982F8E49306
:02017A00282239
:10017C00BB010689828A83F0225002F722BBFE0162
:02018C00F3225C
:10018E00F8BB010DE58229F582E5833AF583E8F0A7
:10019E00225006E92582C8F622BBFE05E92582C853
:0201AE00F2223B
:1001B000EF8DF0A4A8F0CF8CF0A428CE8DF0A42E63
:0201C000FE221D
:1001C200BC000BBE0029EF8DF084FFADF022E4CC21
:1001D200F875F008EF2FFFEE33FEEC33FCEE9DECEA
:1001E200984005FCEE9DFE0FD5F0E9E4CEFD22ED30
:1001F200F8F5F0EE8420D21CFEADF075F008EF2F7A
:10020200FFED33FD4007985006D5F0F222C398FD6A
:050212000FD5F0EA2207
:10021700C2D5EC30E709B2D5E4C39DFDE49CFCEE02
:1002270030E715B2D5E4C39FFFE49EFE1201C2C3B7
:10023700E49DFDE49CFC80031201C230D507C3E4B2
:060247009FFFE49EFE2271
:10024D00A3F8E0C5F025F0F0E58215827002158364
:06025D00E0C838F0E822C1
:10026300E88FF0A4CC8BF0A42CFCE98EF0A42CFC3A
:100273008AF0EDA42CFCEA8EF0A4CDA8F08BF0A4B8
:100283002DCC3825F0FDE98FF0A42CCD35F0FCEB17
:100293008EF0A4FEA9F0EB8FF0A4CFC5F02ECD39DC
:0F02A300FEE43CFCEAA42DCE35F0FDE43CFC2249
:1002B20075F008758200EF2FFFEE33FECD33CDCC03
:1002C20033CCC58233C5829BED9AEC99E582984086
:1002D2000CF582EE9BFEED9AFDEC99FC0FD5F0D663
:1002E200E4CEFBE4CDFAE4CCF9A88222B800C1B98D
:1002F2000059BA002DEC8BF084CFCECDFCE5F0CBCB
:10030200F97818EF2FFFEE33FEED33FDEC33FCEB03
:1003120033FB10D703994004EB99FB0FD8E5E4F9BE
:10032200FA227818EF2FFFEE33FEED33FDEC33FCAB
:10033200C933C910D7059BE99A4007EC9BFCE99A9F
:10034200F90FD8E0E4C9FAE4CCFB2275F010EF2FE4
:10035200FFEE33FEED33FDCC33CCC833C810D707E4
:100362009BEC9AE899400AED9BFDEC9AFCE899F81F
:0E0372000FD5F0DAE4CDFBE4CCFAE4C8F922B2
:1022EA00C2D5E830E70FB2D5E4C39BFBE49AFAE41F
:1022FA0099F9E498F8EC30E717B2D51223201202C4
:10230A00EEE4C39BFBE49AFAE499F9E498F88003B3
:10231A001202EE30D50DE4C39FFFE49EFEE49DFD5C
:04232A00E49CFC2211
:10038000EB9FF5F0EA9E42F0E99D42F0E89C45F0D3
:01039000224A
:10039100E8600FECC313FCED13FDEE13FEEF13FF4A
:0303A100D8F1226E
:1003A400E86010ECA2E713FCED13FDEE13FEEF136F
:0403B400FFD8F0225C
:1003B800E8600FEFC333FFEE33FEED33FDEC33FCA3
:0303C800D8F12247
:1003CB00BB010789828A830205285005E9F80204DC
:1003DB0035BBFE05E9F802053489828A83020540A4
:1003EB00BB010DE58229F582E5833AF583020528E9
:1003FB005007E92582F8020435BBFE07E92582F890
:10040B00020534E58229F582E5833AF5830205403E
:10041B00BB010789828A8302048F5005E9F8020425
:0A042B0083BBFE05E9F8020550222C
:0C043500E6FC08E6FD08E6FE08E6FF22F3
:0D044100E6FB08E6F908E6FA08E6CBF8222B
:10044E007401FF3395E0FEFDFCA3A3A3E02FFFF0A4
:10045E00E582158270021583E03EFEF0E58215827C
:10046E0070021583E03DFDF0E58215827002158362
:05047E00E03CFCF0224F
:0C048300ECF608EDF608EEF608EFF622A5
:0C048F00ECF0A3EDF0A3EEF0A3EFF022E0
:10049B00A8828583F0D083D0821204B21204B212E8
:1004AB0004B21204B2E473E493A3C583C5F0C5830D
:1004BB00C8C582C8F0A3C583C5F0C583C8C582C8AB
:0104CB00220E
:1004CC00BB010DE58229F582E5833AF58302049B95
:1004DC005007E92582F802055CBBFE07E92582F886
:0404EC00020575226E
:0C04F000A42582F582E5F03583F5832217
:1005D400E50E24A3F582E43400F583E0050E2290B1
:1005E40000A03007039000A3E475F00112058E0209
:1005F40001142000E97F2ED2008018EF540F2490BC
:10060400D43440D4FF30040BEF24BFB41A00500399
:100614002461FFE50F6002150F0512E51270020553
:100624001130070E9000A0E475F00112058EEF0260
:10063400017C02257B7403D2078003E4C207F50E14
:100644009000A01205A5E4F50FF511F512E50F6071
:10065400077F2012061780F57510FFC201C200C281
:1006640002C203C205C206C2081205E3FF700D30C0
:1006740007057F00120628AF12AE1122B4255FC20F
:10068400D5C2041205E3FF24D0B40A00501A75F051
:100694000A780F30D50508B6FF0106C6A426F62051
:1006A400D5047002D20380D924CFB41A00EF5004C9
:1006B400C2E5D204020829D20180C6D20080C0D289
:1006C4000280BCD2D580BAD20580B47F201206172E
:1006D4002002077401B50F0040F11205D4FF120681
:1006E40017020651D208D20680951205D4FB1205D2
:1006F400D4FA1205D4F94A4B700679FA7A087BFFCA
:1007040020022EE50F602A7E008E8275830012017E
:100714002D60060EEE651070F0C2D5EBC0E0EAC0A5
:10072400E0E9C0E0EE120870D0E0F9D0E0FAD0E0E1
:10073400FB120114FF60AAEBC0E0EAC0E0E9C0E0EC
:10074400120617D0E02401F9D0E03400FAD0E0FB1F
:10075400E5100460DCD510D980877BFF7A08796CBA
:10076400D202809C791080027908C206C2088008EF
:10077400D2D5790A8004790AC2D5E510047002F54D
:1007840010E4FAFDFEFF1205D4FC7B0820011312CD
:1007940005D4FD7B1030000A1205D4FE1205D4FFE7
:1007A4007B20EC3382D592D55013C3E43000069FEE
:1007B400FFE49EFEE42001039DFDE49CFCE4CBF8F1
:1007C400C201EC700CCFCECDCCE824F8F870F380E5
:1007D40017C3EF33FFEE33FEED33FDEC33FCEB33A5
:1007E400FB994002FB0FD8E9EB300105F8D0E0C4D7
:1007F40048B201C0E00AEC4D4E4F78207B0070C235
:10080400EAB5100040BCC0E0120872D0F0D0E0207D
:100814000104C4C0E0C4B201C0F0120600D0F0D597
:10082400F0EB0206511205AE06EE5307685806BFF8
:100834004C06BB42076C4F07744407744906D44303
:08084400077A55075E46075EC6
:10084C0045075E47091A5006C32D06C72E06EA2B2C
:10085C0006CB2306E82009032A068348000006E29B
:10086C003F3F3F00790AA2D5200314300509B91087
:10087C00020404B9080104A2D52006025001042088
:10088C0002689202B50F005034C0E07F203003198B
:10089C007F30A20272067205500F1208C9C202C242
:1008AC0006C205C2087F30800F300503E9C0E01294
:1008BC000617300503D0E0F9D0E0B50FCC300517A2
:1008CC007F30B9100C1206177F583004077F7880E0
:1008DC0003B908031206173002057F2D0206177F95
:1008EC00202008F87F2B2006F322920280CF286E5E
:1008FC00756C6C2900D2011205D43001F8C2017854
:10090C000F30D50108F60206832D504349581205C5
:10091C00D42403B405004001E49009159312060891
:0D092C00743A120608D203750F0402076822
:10277B00E4FFFE120114600C0FEF70010E09E970FB
:05278B00F20A80EF22BC
:1004FC00EF4E6012EF60010EEDBB010B89828A8317
:10050C00F0A3DFFCDEFA2289F05007F709DFFCA923
:0C051C00F022BBFEFCF309DFFCA9F0227A
:101CBC00021137E493A3F8E493A34003F68001F2F6
:101CCC0008DFF48029E493A3F85407240CC8C33329
:101CDC00C4540F4420C8834004F456800146F6DFF8
:101CEC00E4800B01020408102040809016D2E47EA0
:101CFC00019360BCA3FF543F30E509541FFEE493ED
:101D0C00A360010ECF54C025E060A840B8E493A3B3
:101D1C00FAE493A3F8E493A3C8C582C8CAC583CADE
:101D2C00F0A3C8C582C8CAC583CADFE9DEE780BE96
:0117F00000F8
:0C052800E0FCA3E0FDA3E0FEA3E0FF2246
:0C053400E2FC08E2FD08E2FE08E2FF2203
:10054000E493FC740193FD740293FE740393FF2201
:0C055000ECF208EDF208EEF208EFF222E7
:10055C00D083D082E493F608740193F60874029366
:09056C00F608740393F67404739D
:10057500D083D082E493F208740193F20874029355
:09058500F208740393F27404738C
:10058E00F8E0FBA3A3E0F925F0F0E58215827002F6
:07059E001583E0FA38F0229A
:0905A500EBF0A3EAF0A3E9F02257
:1005AE00D083D082F8E4937012740193700DA3A3DC
:1005BE0093F8740193F5828883E4737402936860F0
:0605CE00EFA3A3A380DFF0
:10257B00EFB40A07740D122586740A309811A899C6
:10258B00B8130CC2983098FDA899C298B811F630C0
:07259B0099FDC299F5992298
:00000001FF
